{
  "address": "0x569e7177F39a1E263425Cf6F2595e68434D0EbA5",
  "abi": [
    {
      "inputs": [
        {
          "internalType": "address",
          "name": "benefactor",
          "type": "address"
        },
        {
          "internalType": "address",
          "name": "beneficiary",
          "type": "address"
        },
        {
          "internalType": "uint256",
          "name": "amount",
          "type": "uint256"
        }
      ],
      "name": "afterTransferHandler",
      "outputs": [],
      "stateMutability": "nonpayable",
      "type": "function"
    },
    {
      "inputs": [
        {
          "internalType": "address",
          "name": "benefactor",
          "type": "address"
        },
        {
          "internalType": "address",
          "name": "beneficiary",
          "type": "address"
        },
        {
          "internalType": "uint256",
          "name": "amount",
          "type": "uint256"
        }
      ],
      "name": "beforeTransferHandler",
      "outputs": [],
      "stateMutability": "nonpayable",
      "type": "function"
    }
  ],
  "transactionHash": "0xa64f66ce2ef92bdeba5fdb0afda5b3995bb952037c584a00120ef1215b12a05f",
  "args": [],
  "numDeployments": 1,
  "solcInputHash": "77ce1463b9d6f0c5bade9d62bc90699e",
  "bytecode": "0x608060405234801561001057600080fd5b5060d18061001f6000396000f3fe6080604052348015600f57600080fd5b506004361060325760003560e01c8063c6512cc1146037578063e613b1cd146037575b600080fd5b604760423660046064565b505050565b005b80356001600160a01b0381168114605f57600080fd5b919050565b600080600060608486031215607857600080fd5b607f846049565b9250608b602085016049565b915060408401359050925092509256fea2646970667358221220db31ab0b0830aa9d9b996a33b462b844ae81d733a2e713271d93d51a05e6019364736f6c634300080b0033",
  "devdoc": {
    "kind": "dev",
    "methods": {
      "afterTransferHandler(address,address,uint256)": {
        "params": {
          "amount": "Number of tokens in the transfer.",
          "benefactor": "Address of the benefactor.",
          "beneficiary": "Address of the beneficiary."
        }
      },
      "beforeTransferHandler(address,address,uint256)": {
        "params": {
          "amount": "Number of tokens in the transfer.",
          "benefactor": "Address of the benefactor.",
          "beneficiary": "Address of the beneficiary."
        }
      }
    },
    "version": 1
  },
  "userdoc": {
    "kind": "user",
    "methods": {
      "afterTransferHandler(address,address,uint256)": {
        "notice": "Perform operations after a transfer is executed."
      },
      "beforeTransferHandler(address,address,uint256)": {
        "notice": "Perform operations before a transfer is executed."
      }
    },
    "version": 1
  },
  "storageLayout": {
    "storage": [],
    "types": null
  }
}