{
  "address": "0x4E57Df17bFd54915815Ac770bdbA61B298c35888",
  "abi": [
    {
      "inputs": [
        {
          "internalType": "address",
          "name": "benefactor",
          "type": "address"
        },
        {
          "internalType": "address",
          "name": "beneficiary",
          "type": "address"
        },
        {
          "internalType": "uint256",
          "name": "amount",
          "type": "uint256"
        }
      ],
      "name": "getTax",
      "outputs": [
        {
          "internalType": "uint256",
          "name": "",
          "type": "uint256"
        }
      ],
      "stateMutability": "pure",
      "type": "function"
    }
  ],
  "transactionHash": "0xfc70160b0790ebc02d495cd3174453fd9d5a0a177c8e218dc358b3e005acfba3",
  "args": [],
  "numDeployments": 1,
  "solcInputHash": "77ce1463b9d6f0c5bade9d62bc90699e",
  "bytecode": "0x608060405234801561001057600080fd5b5060db8061001f6000396000f3fe6080604052348015600f57600080fd5b506004361060285760003560e01c8063d7ad21ac14602d575b600080fd5b60416038366004606e565b60009392505050565b60405190815260200160405180910390f35b80356001600160a01b0381168114606957600080fd5b919050565b600080600060608486031215608257600080fd5b6089846053565b92506095602085016053565b915060408401359050925092509256fea2646970667358221220667da52fde4169ec3d9204a5ccb6b0ef74fdbb5d83940c71de61d78c6c2e02bf64736f6c634300080b0033",
  "devdoc": {
    "details": "This contract should only be used by protocols that collect taxes on certain transactions and want to set it to zero.",
    "kind": "dev",
    "methods": {
      "getTax(address,address,uint256)": {
        "params": {
          "amount": "Number of tokens in the transfer.",
          "benefactor": "Address of the benefactor.",
          "beneficiary": "Address of the beneficiary."
        },
        "returns": {
          "_0": "Number of tokens to pay as tax. This is statically set to zero."
        }
      }
    },
    "title": "Zero tax handler contract",
    "version": 1
  },
  "userdoc": {
    "kind": "user",
    "methods": {
      "getTax(address,address,uint256)": {
        "notice": "Get taxed tokens for transfers. This method always returns zero."
      }
    },
    "version": 1
  },
  "storageLayout": {
    "storage": [],
    "types": null
  }
}